:1000000000800020BD01000045080000110800002C
:10001000110800001108000011080000110800007C
:100020001108000011080000110800004508000038
:100030004508000011080000450800000108000004
:10004000450800004508000045080000450800007C
:10005000450800004508000045080000450800006C
:10006000450800004508000045080000450800005C
:10007000450800004508000045080000450800004C
:10008000450800004508000045080000450800003C
:10009000450800004508000045080000450800002C
:1000A000450800004508000045080000450800001C
:1000B000450800004508000045080000450800000C
:1000C00045080000450800004508000045080000FC
:1000D00045080000450800004508000045080000EC
:1000E00045080000450800004508000045080000DC
:1000F0004508000051100000450800000D170000E1
:10010000450800000D1C00004508000045080000DF
:1001100045080000450800004508000045080000AB
:10012000450800004508000045080000450800009B
:10013000450800004508000045080000450800008B
:10014000450800004508000045080000450800007B
:10015000CD2B0000E12B0000F52B0000092C000046
:1001600045080000E11E00004508000045080000A9
:10017000450800004508000045080000450800004B
:10018000450800004508000045080000450800003B
:10019000450800004508000045080000450800002B
:1001A000450800004508000045080000450800001B
:1001B000450800004508000061280000564B4CF23D
:1001C000205210B51A804DF628121A8000BF00BFC9
:1001D00000F03CFB514B4FF010621A60504A9A609D
:1001E000504ADA60504A136813F4807301BF4F49D4
:1001F0000B604FF4A85313604D4B4E491A7810070B
:1002000042BF1A7842F008021A704B4B2A221A7029
:100210004A4A4B4B8B4204D252F8040F43F8040B6A
:10022000F8E7484B484A0021934202D243F8041BA6
:10023000FAE7464A4648002350F8231042F82310B4
:1002400001336F2BF8D1434B434A802103F8011B44
:100250009342FBD1414B3D4A1A60414B8A221A70AE
:10026000A3F5805324225A70A0221A709A7991071C
:10027000FCD59A79D206FCD43A4A937903F00C0360
:10028000082B384BF9D103221A7140225A719A79FE
:100290009406FCD533498A79324B5006FBD5324A55
:1002A000324911600221516020221A709A7902F0BD
:1002B0000C020C2AFAD12E4B2E4A1A602E4B4BF60A
:1002C0007F321A6000225A60072243F8042C2B4A1E
:1002D000C3F80C2D62B600F0A9FB144B1B68DA07BB
:1002E00005D5274800F000FB264B274A1A60274B0C
:1002F0001B785B0609D5234C234B22689A4204D114
:100300001F4800F0F1FA0023236002F0E7FE00F03E
:10031000A3FA00F0CDF9FEE70E200540308004403E
:10032000823F04000100002B10D0034014D0034092
:1003300002D007408091FF1F00E00740D84A00002C
:100340002087FF1F8091FF1FF094FF1F0082FF1F77
:100350000000000000E400E05FE400E008ED00E0E1
:100360000050064000400640448004400000131145
:1003700004800440C010050014E000E000002020CC
:1003800000DD68501CE00340A5C3945A00F007400C
:10039000FFFFFFFFFFFFFFFFFFFFFFFFFFFFFFFF6D
:1003A000FFFFFFFFFFFFFFFFFFFFFFFFFFFFFFFF5D
:1003B000FFFFFFFFFFFFFFFFFFFFFFFFFFFFFFFF4D
:1003C000FFFFFFFFFFFFFFFFFFFFFFFFFFFFFFFF3D
:1003D000FFFFFFFFFFFFFFFFFFFFFFFFFFFFFFFF2D
:1003E000FFFFFFFFFFFFFFFFFFFFFFFFFFFFFFFF1D
:1003F000FFFFFFFFFFFFFFFFFFFFFFFFFFFFFFFF0D
:10040000FFFFFFFFFFFFFFFFFFFFFFFFDEF9FFFF23
:1004100010B5054C237833B9044B13B10448AFF33E
:1004200000800123237010BD8091FF1F0000000099
:10043000DC4A0000084B10B51BB108490848AFF36F
:1004400000800848036803B910BD074B002BFBD0A0
:10045000BDE81040184700BF000000008491FF1F56
:10046000DC4A00008091FF1F000000000368C9B251
:100470001B6818471FB5002102221D4802F09DFD90
:100480001C491B4802F050FD50BB1B49684602F056
:10049000CBFC6946164802F06FFD0446684602F040
:1004A00083FCFCB91549684602F0BEFC6946104859
:1004B00002F062FD0446684602F076FCA4B91049D9
:1004C000684602F0B1FC6946094802F055FD044651
:1004D000684602F069FC002C14BF0420002004E0F0
:1004E000012002E0022000E0032004B010BD00BFA4
:1004F0009C91FF1FB9460000584600005D46000071
:100500006346000008B540F2413000F0DFFA0B21ED
:10051000054802F0D9F8054802F0DCFB64210448E4
:10052000BDE8084002F053BC694600009094FF1FEC
:100530009C91FF1F10B500F015FD80B100F022FD69
:10054000C4B22146064802F0D9FC0D2CF3D1054B6C
:1005500003480122BDE810401A7002F048BD10BDEA
:100560009C91FF1FAC91FF1F10B50B4C0D21204635
:10057000FFF77CFF0A212046FFF778FF0222074998
:10058000204602F0CBF90D212046FFF76FFF0A212C
:100590002046FFF76BFF10BD3494FF1F7546000027
:1005A00008B50449044802F071FC044B00221A709B
:1005B00008BD00BFB94600009C91FF1FAC91FF1F12
:1005C00008B50146034802F064FBBDE80840FFF7A8
:1005D000CBBF00BF3494FF1F00B589B009496846FE
:1005E00002F022FC694604A802F045FC04A8FFF7CB
:1005F000E7FF04A802F0D8FB684602F0D5FB09B07B
:100600005DF804FB784600001FB51A4B1B7823B930
:100610004FF47A7000F0F4F929E0FFF72BFF164948
:100620000446684602F000FC1449684602F074FC77
:100630000146134802F02DFB114802F04BFB6846BF
:1006400002F0B2FB21460E4802F08FFB013C0C4841
:1006500002F040FB032C06D8DFE804F00505020594
:10066000FFF7BAFF01E0FFF77FFFFFF799FF04B044
:1006700010BD00BFAC91FF1FBA4600009C91FF1F48
:100680009094FF1F10B5074C00F076F8002120462B
:1006900002F0CAFB2046044A0449BDE8104002F0BB
:1006A00011BD00BF9C91FF1F2087FF1FA92D0000D7
:1006B00008B5FFF727FFFFF7A7FF02F0E3FCFAE713
:1006C00010B5204B2048214960221A70E1225A704F
:1006D0001F4B204A1C78204B082C01D1012402E03A
:1006E0000A2C03D139240460132005E00C2C0CBF24
:1006F00035243D2404601220086014601860174BF4
:1007000017491B78174A03B101230B601360164B7E
:10071000164A1978164B012901D880210BE00429CB
:1007200001D8842107E0082901D8852103E0102998
:1007300094BF86218721116019600E4B01221A7027
:1007400010BD00BF0040074008B003400CB003409C
:100750002487FF1F08B00B400CB00B40AE91FF1F69
:1007600020B0034020B00B402587FF1F24B003407A
:1007700024B00B40AD91FF1F7FB51C4B6A4603F1BF
:1007800010066D4618685968144603C40833B3420E
:100790002246F7D1164B1A7812F0020F1E4601D1ED
:1007A000144B1EE0144A137813F0700318BF137033
:1007B000124B80221A70002203F8032C33221A7184
:1007C0000322DA7072B60C4C45F0010320469847BC
:1007D00062B6237813F07003E2D0237004E0013B8B
:1007E00002D03278D207FAD504B070BDCE460000F0
:1007F00001000240410D03000000024007000240DA
:10080000024A136801331360704700BFB091FF1FA5
:1008100008B50B4D2C462B68580301D501F060FB41
:100820002368590501D500F013FC23681A0501D58A
:1008300000F06CFF2368DB04EDD501F0E7F9EAE78F
:100840003480044008B5FFF7E3FFFFFF014B10229F
:100850001A807047002005407047FFFF024A136866
:1008600018441060184670472887FF1FEFF3138362
:100870009BB9EFF3108098B9EFF3058323B10F2BE9
:1008800004D9084A985C01E04FF48070EFF31183BB
:100890003BB1984228BF184670474FF0FF30704771
:1008A00018467047F0E300E030B503460020B3FB84
:1008B000F2F402FB1433092B94BF30333733DBB22D
:1008C0000B5423460CB10130F1E70A18234654704B
:1008D000C41AA34206DACC5C1578CD5402F801495B
:1008E0000133F5E7084630BD044B054900221A6084
:1008F0000A60044A106010221A60704714D0034046
:1009000004D0034000D00340212810B518D80D4B67
:1009100053F8302092F880423CB1012311B182F8A3
:10092000803010BD82F8003110BD03EBC0035B685E
:100930001A6811B142F0030201E022F002021A60CB
:1009400010BD00BFE0460000212810B537D81C4A72
:1009500002EBC00301295B68144601D004290FD1C2
:1009600054F83020012082F880024FF4A2721A60FD
:100970001A6804290CBF42F0200222F020021DE078
:1009800052F83020002082F8800211B18A1E012A1C
:1009900012D84FF4807202291A6003D11A6842F00B
:1009A00003020BE003290AD11A6842F002021A601E
:1009B0001A6822F0010201E040F203121A6010BD31
:1009C000E046000072B60B4B0B4A0C491B681268DC
:1009D000096862B6490102D5322B88BF0132C3F5DE
:1009E0003B4330207F33B3FBF0F34FF47A7000FBCE
:1009F0000230704718E000E0B091FF1F04ED00E006
:100A000038B50446FFF7DEFF054624B938BD013C82
:100A10000AD005F57A75FFF7D5FF401BB0F57A7F50
:100A2000F5D202F02FFBF6E738BDFFFF204B4FF465
:100A3000000210B51A604FF080721A604FF0007219
:100A40001A604FF080621A604FF000621A60194B12
:100A5000194A1A4C00204BF6FF7118605960282380
:100A600013609360136193611362936213639363E2
:100A70000922226004F58054043420606160A36080
:100A8000236144F8042C04F5FE2420600C48016026
:100A90000C490B608B600C4B1A60FFF711FE4FF492
:100AA000C870FFF7ADFFBDE8104001F023BD00BFE7
:100AB00008E100E0048003400C8003400080034014
:100AC00008800B400C800B4000800B40234A1368C9
:100AD00043F480631360224A00231370214A137089
:100AE000214A1370214A1370214A1370214B1B783D
:100AF0002BB1152B07D140F213321F4B02E01F4BD5
:100B000040F213321A601E4B1B78012B05D0052BC7
:100B100007D14FF451721B4B02E01B4B4FF4517243
:100B20001A601A4BC0F344321A70C0F347125A705D
:100B30000221042200F01F0098729A70D9745A752D
:100B400088221A743C22DA70114B40226FF44A71E9
:100B50001A700B444FF400521A60704734800440FE
:100B60003B92FF1FB991FF1F4492FF1F3C92FF1F52
:100B7000B891FF1FFA91FF1F18C0044040A0044025
:100B80002C87FF1F1CC0044044A0044000A0064066
:100B90002DE400E0134B9A7802F0EC0100F0030220
:100BA0000A43410748BF42F010029A700D4900F015
:100BB0000F02042A02BF8A7942F040028A715A79F0
:100BC000C30602F0EF02074B48BF42F010025A7111
:100BD0009A79810602F0EF0248BF42F010029A7142
:100BE000704700BF00A00640114B1B685B0510B5A5
:100BF00000D410BD0F4C227802F0FF0312B102F0B6
:100C000041FAF8E70C4A4FF4005111600B4A0C49C5
:100C1000D37040F203120A604A600A4A13700A4A0B
:100C200013700A4B1B680BB101221A7010BD00BF74
:100C300034800440B891FF1F84E100E000A006402A
:100C400040A004403B92FF1FB991FF1FB491FF1FCA
:100C50000A4A38B50446137803F0FF05002BFAD191
:100C600001212046FFF770FE29462046FFF74CFE83
:100C7000034B53F83420034B1A6038BDB891FF1F63
:100C8000E04600004092FF1F10B509B140F080001F
:100C9000144A13789842144622D0134A1268520517
:100CA0001DD503F07F03012B04D0052B05D10022B5
:100CB0000E4B01E00E4B00221A60002900F07F026B
:100CC00014BF60234423012A05D0052A07D143F429
:100CD0004073064A02E0064A43F4407313602070F2
:100CE00010BD00BF2C87FF1F348004401CC004408F
:100CF00044A004400E4B1A78824218D00D4909686E
:100D0000490513D52AB1152A05D10B4A00211160D6
:100D100001E00A490A6028B1152807D140F21331D1
:100D2000054A02E0054A40F213311160187070471D
:100D3000FA91FF1F3480044018C0044040A00440D2
:100D400038B50D4B1B6813F480634FF0000410D0CE
:100D500021280A4D0AD80A4B012153F830302B6064
:100D6000FFF7F2FD2B681C70012038BD2C60204677
:100D700038BD184638BD00BF34800440B491FF1F11
:100D8000E04600000E4B1B6813F4806316D0122857
:100D90000C4B03D140F202310B4A04E0142809D174
:100DA0000A4A40F2023111605A7B42F001025A7342
:100DB000012070475A7B02F0FE025A7300207047F0
:100DC0003480044000A006400CA0044014C004403D
:100DD0002DE9F8431F4B1B685A05064637D51E4BB5
:100DE0001B680BB101221A701C4DDFF880902C7823
:100DF0001B4F0134402C28BF0024C84699F800300E
:100E0000A34219D1FFF732FD402810DC3B791B06C5
:100E1000F4D599F80030134A0133402B28BF002342
:100E2000D25CDBB2D2B2FA7188F80030E6E7FF2874
:100E3000E4DD02F027F9E1E70A4BF6B21E550A4B52
:100E400001221A70064BE4B2BC222C70DA70BDE8A5
:100E5000F88300BF348004404092FF1F4492FF1F7C
:100E600000A00640BA91FF1FB891FF1F3C92FF1FE0
:100E70002DE9F84F264B1B685A050646884645D58E
:100E8000244B1B680BB101221A70234FB246B9469E
:100E900006EB08039A4536D23C78204BDFF87CB04D
:100EA0001B780134402C28BF00249C420AD01C4BE4
:100EB0001AF8011B19551B4B0121E4B2197089F86E
:100EC0000040E5E7184DBC23EB70FFF7CFFC40284E
:100ED00010DC2B791B0611D59BF80030104A01332A
:100EE000402B28BF0023D05CDBB2C0B2E8718BF886
:100EF000003003E0FF2801DD02F0C4F89BF8003069
:100F00009C42E2D0D3E7084BBC22DA70BDE8F88FF0
:100F1000348004404092FF1F4492FF1F3C92FF1F09
:100F2000BA91FF1FB891FF1F00A0064010B5034CF7
:100F3000237813B102F0A6F8FAE710BDB891FF1FAD
:100F4000064B1878064B1A78C0B2D3B298422CBF21
:100F50003F3303F1FF33181A704700BF4492FF1F5D
:100F60003C92FF1F054B1878054B1A78C0B2D3B2DC
:100F7000984238BF4030C01A704700BF3B92FF1FF5
:100F8000B991FF1F10B5104B104C1B782278D9B2C5
:100F9000D2B2914214D0531C402B28BF00230C4ADC
:100FA000D05CDAB222700B4A1268C0B252B18B42E6
:100FB00088BF4031CB1A1A2B04DC0023137010BDFC
:100FC0004FF0FF3010BD00BF3B92FF1FB991FF1FD4
:100FD000FB91FF1FB491FF1F084B1A78084B1B7839
:100FE000DBB29A4207D00133402B28BF0023054AC9
:100FF000D05CC0B270474FF0FF3070473B92FF1F8C
:10100000B991FF1FFB91FF1F0C4B1B685B0514D5AB
:101010000B4BDA7802F0CB02DA7040225A74DA789D
:1010200042F03402DA70074B074A1B78DBB21370C8
:10103000064B1B680BB100221A70704734800440C5
:1010400000A00640B991FF1F3B92FF1FB491FF1F04
:10105000F0B534490B7913F0300F2FD072B68B7D79
:1010600003F0FF0423B9CB7940234B7462B625E02B
:1010700062B62D482D4A037812782D4FDBB2D2B2DA
:101080000546581C4028CE7928BF00209042F6B271
:101090001CBF3E540346601E10F0FF04F1D1D9B2CC
:1010A00029702449096849B1934236BFC2F1400210
:1010B0009B1A9B18272BC4BF01230B70194AD178A8
:1010C000C9B20D061ED513791C061BD51A4B1B4839
:1010D0001D7803781A4EEDB2DBB2AB420AD0013371
:1010E000402B28BF00231479F45CE4B2D471147D42
:1010F000072CF2D9DBB203700A4B1A79100644BFF1
:101100007C22DA7049060CD5064B1A79520608D5AE
:101110000C4A002111700C4A126802B111703C2275
:10112000DA70F0BD00A006403B92FF1FB991FF1F8F
:10113000FB91FF1FB491FF1F4492FF1F3C92FF1FC2
:10114000BA91FF1FB891FF1F4092FF1F234A1368F7
:1011500043F400631360224A00231370214A137082
:10116000214A1370214A1370214A1370214B1B78B6
:10117000092B05D01A2B07D140F213321E4B02E087
:101180001E4B40F213321A601D4B1B780A2B05D000
:101190001F2B07D14FF451721A4B02E01A4B4FF438
:1011A00051721A60194BC0F344321A70C0F34712DF
:1011B0005A7000F01F000422022198729A70D974AC
:1011C0005A7588221A743C22DA70114B40221A7028
:1011D000A3F22B334FF400421A607047348004406E
:1011E000B692FF1F4D92FF1FBC92FF1FB792FF1FC9
:1011F0004C92FF1F2D87FF1F04D004400CB0044009
:101200002E87FF1F00D0044010B0044000B00640FD
:101210002FE400E0134B9A7802F0EC0100F0030297
:101220000A43410748BF42F010029A700D4900F08E
:101230000F02042A02BF8A7942F040028A715A7969
:10124000C30602F0EF02074B48BF42F010025A718A
:101250009A79810602F0EF0248BF42F010029A71BB
:10126000704700BF00B006401E4B1B681B0510B541
:1012700000D410BD1C4C237803F0FF0213B101F021
:1012800001FFF8E7194B4FF400411960184BDA7071
:10129000184B1B78092B05D01A2B07D140F20312EB
:1012A000154B02E0154B40F203121A60144B1B78E9
:1012B00003F07F030A2B05D01F2B07D140F2031246
:1012C000104B02E0104B40F203121A600F4A002349
:1012D00013700F4A13700F4B1B680BB101221A7069
:1012E00010BD00BF348004404C92FF1F84E100E039
:1012F00000B006402D87FF1F04D004400CB004400E
:101300002E87FF1F00D0044010B00440B692FF1F8C
:101310004D92FF1F4892FF1F0A4A38B504461378C2
:1013200003F0FF05002BFAD101212046FFF70CFB4B
:1013300029462046FFF7E8FA034B53F83420034BC5
:101340001A6038BD4C92FF1FE0460000B892FF1FA4
:1013500010B509B140F08000144A13789842144641
:1013600022D0134A126812051DD503F07F030A2B01
:1013700004D01F2B05D100220E4B01E00E4B0022A2
:101380001A60002900F07F0214BF602344230A2A58
:1013900005D01F2A07D143F44073064A02E0064AEB
:1013A00043F440731360207010BD00BF2E87FF1FF1
:1013B0003480044000D0044010B004400F4B1A7831
:1013C00082421AD00E490968090515D5092A04D0A8
:1013D0001A2A05D100210B4A01E00B4A00211160B5
:1013E000092805D01A2807D140F21331054A02E036
:1013F000054A40F213311160187070472D87FF1FA6
:101400003480044004D004400CB0044038B50D4B87
:101410001B6813F400634FF0000410D021280A4D1C
:101420000AD80A4B012153F830302B60FFF78CFAB1
:101430002B681C70012038BD2C60204638BD184632
:1014400038BD00BF348004404892FF1FE0460000D2
:101450000B4B1B6813F4006310D01728094B09D1FC
:10146000094A40F2023111605A7B42F001025A737C
:10147000012070475A7B02F0FE025A730020704729
:101480003480044000B0064008B004402DE9F84321
:101490001F4B1B681A05064637D51E4B1B680BB140
:1014A00001221A701C4DDFF880902C781B4F0134FC
:1014B000282C28BF0024C84699F800309C4219D136
:1014C000FFF7D4F9402810DC3B791B06F4D599F8D6
:1014D0000030134A0133282B28BF0023D25CDBB233
:1014E000D2B2FA7188F80030E6E7FF28E4DD01F0B7
:1014F000C9FDE1E70A4BF6B21E550A4B01221A70EC
:10150000064BE4B2BC222C70DA70BDE8F88300BF51
:1015100034800440B892FF1FBC92FF1F00B0064009
:101520004E92FF1F4C92FF1FB792FF1F2DE9F84FFD
:10153000264B1B681A050646884645D5244B1B6872
:101540000BB101221A70234FB246B94606EB0803CD
:101550009A4536D23C78204BDFF87CB01B780134BA
:10156000282C28BF00249C420AD01C4B1AF8011BCF
:1015700019551B4B0121E4B2197089F80040E5E7C9
:10158000184DBC23EB70FFF771F9402810DC2B7964
:101590001B0611D59BF80030104A0133282B28BFB9
:1015A0000023D05CDBB2C0B2E8718BF8003003E0FE
:1015B000FF2801DD01F066FD9BF800309C42E2D07F
:1015C000D3E7084BBC22DA70BDE8F88F34800440C2
:1015D000B892FF1FBC92FF1FB792FF1F4E92FF1FD2
:1015E0004C92FF1F00B0064010B5034C237813B196
:1015F00001F048FDFAE710BD4C92FF1F064B18782A
:10160000064B1A78C0B2D3B298422CBF273303F1ED
:10161000FF33181A704700BFBC92FF1FB792FF1F1D
:10162000054B1878054B1A78C0B2D3B2984238BF30
:101630004030C01A704700BFB692FF1F4D92FF1F87
:1016400010B5104B104C1B782278D9B2D2B291420F
:1016500014D0531C402B28BF00230C4AD05CDAB2B4
:1016600022700B4A1268C0B252B18B4288BF40311F
:10167000CB1A1A2B04DC0023137010BD4FF0FF307F
:1016800010BD00BFB692FF1F4D92FF1F7692FF1F45
:101690004892FF1F084B1A78084B1B78DBB29A421E
:1016A00007D00133402B28BF0023054AD05CC0B2CD
:1016B00070474FF0FF307047B692FF1F4D92FF1FEB
:1016C0007692FF1F0C4B1B681B0514D50B4BDA7869
:1016D00002F0CB02DA7040225A74DA7842F0340217
:1016E000DA70074B074A1B78DBB21370064B1B6896
:1016F0000BB100221A7070473480044000B00640DD
:101700004D92FF1FB692FF1F4892FF1FF0B534495C
:101710000B7913F0300F2FD072B68B7D03F0FF04DE
:1017200023B9CB7940234B7462B625E062B62D48CD
:101730002D4A037812782D4FDBB2D2B20546581CE1
:101740004028CE7928BF00209042F6B21CBF3E54FC
:101750000346601E10F0FF04F1D1D9B2297024496C
:10176000096849B1934236BFC2F140029B1A9B18E7
:10177000272BC4BF01230B70194AD178C9B20D06BB
:101780001ED513791C061BD51A4B1B481D780378F0
:101790001A4EEDB2DBB2AB420AD00133282B28BF80
:1017A00000231479F45CE4B2D471147D072CF2D9CF
:1017B000DBB203700A4B1A79100644BF7C22DA7040
:1017C00049060CD5064B1A79520608D50C4A002159
:1017D00011700C4A126802B111703C22DA70F0BD2F
:1017E00000B00640B692FF1F4D92FF1F7692FF1F7A
:1017F0004892FF1FBC92FF1FB792FF1F4E92FF1F20
:101800004C92FF1FB892FF1F174A136843F480538E
:101810001360164A00231370154A1370154A13708B
:10182000154A1370154A1370154A40F213311160AE
:101830004FF451715160134AC0F344311170C0F339
:10184000471100F01F0051709072937013742C2395
:10185000D3700D4B40226FF44B711A700B444FF450
:1018600000321A60704700BF348004402E93FF1F7F
:10187000C592FF1F3493FF1F2F93FF1FC492FF1FBA
:1018800008C0044000C0064031E400E0134B9A78E1
:1018900002F0EC0100F003020A43410748BF42F0A6
:1018A00010029A700D4900F00F02042A02BF8A79D3
:1018B00042F040028A715A79C30602F0EF02074BE8
:1018C00048BF42F010025A719A79810602F0EF0285
:1018D00048BF42F010029A71704700BF00C0064036
:1018E000114B1B68DB0410B500D410BD0F4C2278DF
:1018F00002F0FF0312B101F0C5FBF8E70C4A4FF408
:10190000003111600B4A0C49D37040F203120A6097
:101910004A600A4A13700A4A13700A4B1B680BB1DB
:1019200001221A7010BD00BF34800440C492FF1F12
:1019300084E100E000C0064008C004402E93FF1F71
:10194000C592FF1FC092FF1F0A4A38B5044613789C
:1019500003F0FF05002BFAD101212046FEF7F4FF2A
:1019600029462046FEF7D0FF034B53F83420034BA3
:101970001A6038BDC492FF1FE04600003093FF1F7D
:1019800010B509B140F080000E4B1A78904217D084
:101990000D4C2468E40412D502F07F02082A02BF2D
:1019A0000A4A00241460002900F07F010CBF442281
:1019B0006022082902BF054942F440720A6018708B
:1019C00010BD00BF2F87FF1F348004400CC00440AF
:1019D0007047FFFF38B50D4B1B6813F480534FF071
:1019E000000410D021280A4D0AD80A4B012153F8CF
:1019F00030302B60FEF7A8FF2B681C70012038BD2B
:101A00002C60204638BD184638BD00BF34800440E5
:101A1000C092FF1FE04600000B4B1B6813F480537D
:101A200010D00E28094B09D1094A40F20231116049
:101A30005A7B42F001025A73012070475A7B02F030
:101A4000FE025A73002070473480044000C00640F4
:101A500004C004402DE9F8431F4B1B68DA04064616
:101A600037D51E4B1B680BB101221A701C4DDFF8D5
:101A700080902C781B4F0134282C28BF0024C846A6
:101A800099F80030A34219D1FEF7F0FE402810DC8F
:101A90003B791B06F4D599F80030134A0133282B03
:101AA00028BF0023D25CDBB2D2B2FA7188F80030D2
:101AB000E6E7FF28E4DD01F0E5FAE1E70A4BF6B2DC
:101AC0001E550A4B01221A70064BE4B2AC222C7050
:101AD000DA70BDE8F88300BF348004403093FF1F04
:101AE0003493FF1F00C00640C692FF1FC492FF1F21
:101AF0002F93FF1F38B504464518AC4204D014F8A4
:101B0000010BFFF7A7FFF8E738BDFFFF10B5034C47
:101B1000237813B101F0B6FAFAE710BDC492FF1FA3
:101B2000064B1878064B1A78C0B2D3B298422CBF35
:101B3000273303F1FF33181A704700BF3493FF1F98
:101B40002F93FF1F054B1878054B1A78C0B2D3B2FC
:101B5000984238BF4030C01A704700BF2E93FF1F15
:101B6000C592FF1F10B5104B104C1B782278D9B2CC
:101B7000D2B2914214D0531C402B28BF00230C4AF0
:101B8000D05CDAB222700B4A1268C0B252B18B42FA
:101B900088BF4031CB1A1A2B04DC0023137010BD10
:101BA0004FF0FF3010BD00BF2E93FF1FC592FF1FE7
:101BB000EE92FF1FC092FF1F084B1A78084B1B784C
:101BC000DBB29A4207D00133402B28BF0023054ADD
:101BD000D05CC0B270474FF0FF3070472E93FF1FAC
:101BE000C592FF1FEE92FF1F054B064A1B78DBB222
:101BF0001370054B1B680BB100221A70704700BFB1
:101C0000C592FF1F2E93FF1FC092FF1F10B5284BD8
:101C10001A79920620D52749DA790B7826480133BC
:101C200000783F2BC8BF0023834218BF2348D2B29D
:101C30001EBFC254DAB20A70214A116861B1214A4A
:101C40001278D2B2934236BFC2F140029B1A9B185F
:101C5000272BC4BF01230B701549CA78D2B21406D2
:101C600016D50B79180613D5174B164C1878237810
:101C7000DBB2984202D16C23CB7009E00133282BF0
:101C800028BF00231148C05CDBB2C0B2C87123700A
:101C900051060CD5064B1A79520608D50C4A00217C
:101CA00011700C4A126802B111702C22DA7010BD4A
:101CB00000C006402E93FF1FC592FF1FEE92FF1F2C
:101CC000C092FF1F2F93FF1F3493FF1FC692FF1F69
:101CD000C492FF1F3093FF1F1FB572B6154B7022C1
:101CE0001A70154A412111700F2102F8011C80223F
:101CF0001A701A781206FCD5104B186862B6104B91
:101D0000984298BF0A2301AC98BF58430A22214643
:101D1000FEF7CAFD0B4A0023E15C21B101330A2B17
:101D200022F8021BF8D1084A01335B00137004B09B
:101D300010BD00BF00000240070002400800024042
:101D40007F969800BA87FF1FB887FF1FF0B50C4C2D
:101D50000C4E23780C4D43F0020706EBC70283F0CC
:101D6000010350602A782370002A14BFC8208820FD
:101D700082F0010240EA01412A7046F83710F0BDB6
:101D8000A093FF1F0080FF1F1894FF1F431E032B0B
:101D900010B510D872B6094A52F8230048B141680C
:101DA00042F823100649048831F81320121B21F849
:101DB000132062B610BD002010BD00BF9093FF1F1E
:101DC000D894FF1F013803280AD872B6054B53F880
:101DD0002030002013B101305B68FBE762B670472A
:101DE00000207047E493FF1F70B472B6174C184977
:101DF00001231A1912F8012C12071DD59A00144E4E
:101E000051F832502DB906EB431308305860114B8E
:101E100009E042F0010251F832506DB906EBC203FD
:101E2000083058600C4B46F832300C4A1378013BAE
:101E3000137062B670BC70470133052BD9D162B6FE
:101E4000064B00221A7070BC00F0B4BBF0470000D3
:101E50000080FF1F88004000C80040000E94FF1F54
:101E6000431E032B10B532D8194A400140F0100030
:101E7000104472B6174AD45C032C0BD8DFE804F088
:101E800018040207052414E00830022411E0083089
:101E900004240EE01048114A50F8234014B940F8C9
:101EA000231002E052F82300416042F823100DE0B5
:101EB0000324D45410F0080F01F108030A8843608A
:101EC00014BFC823882343EA0243036062B610BDEF
:101ED0000080FF1F4C93FF1FE493FF1FF493FF1F2D
:101EE0002DE9F74FA84B1C78E4B214F0040F1D46FF
:101EF0001AD0A64B1B78A3B1A54A117801F0FF03B5
:101F000021B1013BDBB2137003B900BEA14A1178C5
:101F100001F0FF0329B1013BDBB213700BB900F0F4
:101F20007BFC994A0423137004F0080303F0FF02BA
:101F3000002B00F06F82984B984C1B78DBB21F0986
:101F40004FEA930640F0EA8104EBC603596854F85F
:101F50003630C3F38303013B0C2B00F2DB81DFE857
:101F600013F098019801D901D901D901D901D901FA
:101F7000D901B701D901D901D9010D000A68884DED
:101F800088484B682A6001216B60DFF84C82864BE1
:101F9000017092B240F2816044F8363082424FF0D4
:101FA0000003C8F800302361A36117D8B2F5D06FE1
:101FB00080F02581B2F5817F00F0D68006D8802A96
:101FC00000F0C180822A00F0C28033E140F2023387
:101FD0009A4200F00581B2F5A06F1AE042F22100AA
:101FE000824200F053810CD8B2F5086F00F0A58052
:101FF000B2F5106F40F01E81644AA97811701E4638
:102000000AE042F221218A4200F00C8142F221339F
:102010009A4200F013810DE1A219136A1F0603D53D
:10202000506A083800F0C6FA0836802EF4D1DFF87E
:10203000AC915E4F0026CA4659F826004FEA860B3F
:1020400030B14268009200F0B5FA009A1046F7E706
:10205000574B584A4AF80B004BF803005BF8020054
:1020600040B141680192009100F0A4FA0099019AF0
:102070000846F5E7504B42F80B0023F816003B7872
:102080004E4A023B4BF80200032B07D8DFE803F06F
:1020900002040204002300E001233B700136042EF9
:1020A00007F10107C8D1464B464E3F4F00221A7038
:1020B0004FF0010B9946444A0BEB06015A4411F8C4
:1020C000011C920011F0080F11704FEA8B0A24D006
:1020D00000F052FA38B104EB4B1208303B4B506021
:1020E00044F83A3006E099F8002044F83A0001320A
:1020F00089F8002000F040FA4AF0010230B104EB08
:10210000C2010830486044F8327006E044F83200FA
:1021100099F80020013289F800204AF002010BF101
:10212000010B4AF0030A0022BBF1050F44F83120ED
:1021300044F83A20BFD1134681E0144B244E1B785B
:1021400033700B467EE0224E3370737079E0AA88BC
:10215000042A6FD81E4E9200337073701D4B9B5C27
:102160009C076ED531706CE0AA8802F07F02042AC9
:1021700060D86B88002B5DD11649920011440A7813
:1021800022F0020239E000BF802007401794FF1FB1
:10219000A193FF1F1994FF1F902007400080FF1F8D
:1021A0000494FF1F1894FF1FC80040004C93FF1FAA
:1021B0003C93FF1FE493FF1FD894FF1FF493FF1F6E
:1021C0000E94FF1FF047000030C801108800400047
:1021D0000F94FF1FC02007403893FF1F9093FF1FED
:1021E000AA8802F07F02042A24D86B8813BBA54971
:1021F000920011440A7842F002020A701FE06A88D5
:10220000A988A14B5E68AEB11888904208D1588861
:10221000884205D1120A032A0CBF33781B8911E0CA
:102220000C33EFE7994A1168994A1160994AA978E5
:10223000117004E0934B0F221A7027E000231E4612
:1022400000E00223EC889C4228BF1C46402C254617
:1022500028BF402530462946FFF778FD641B2E44F1
:1022600003D1402D12D1254603E0402C254628BF3E
:10227000402530462946FFF769FD641B2E4401D1F5
:10228000402D03D1844BC8F800601C800122834B91
:102290003FE0834B1A8842F221039A4214D1814ACB
:1022A0000023C85C98540133072BFAD17D4B1B687F
:1022B000862B08BF7C4B4FF0000108BF0F22084659
:1022C00008BF1A70FFF742FD784B44F8363021E022
:1022D000774F3E68A6B1DFF8C081B8F80040402CC7
:1022E000254628BF402530462946FFF72FFD601BB5
:1022F00080B2A8F8000008B9402D00D170193860EC
:10230000674B1A88B2F5A06F04D100225A709A78F0
:10231000684B1A70614B01221A7077E004EBC60516
:10232000013F6A6803F00803A2F10800FFB203F05E
:10233000FF0E002B36D000F03DF95F485F4A50F8A1
:102340002710E9B14B6840F8273001F108036B60B2
:10235000D35D032B0BD8DFE803F002040608032348
:1023600004E0022302E0052300E00423D35515F026
:10237000080F0A8814BFC823882343EA024343E0B6
:10238000D35D032B07D8DFE803F0414102040023AB
:1023900006E0012304E015F0080F14BF0323022315
:1023A000D35533E054F836301B0C99B222F8081C90
:1023B00023B3434B22F806EC42F804EC53F82720F1
:1023C000DFF82CE112B943F8270002E05EF827306D
:1023D00058603C4A4EF8270032F817300B4422F878
:1023E000173000F0C9F810B10830686006E0364ACE
:1023F00044F8360013780133137007E0334A2B4B4F
:1024000015F0080F08BF134644F83630304A082349
:10241000137067E5E0071ED520492C482D4C022398
:102420000B702D4B1A702D4B186098602C48D8609B
:102430001A619A615C60134B0D2018702948FF23C4
:1024400003702B700274284A1370284B9F221A7055
:1024500001230B7012E0210604D50A4B0D221A70DD
:1024600080232B70A20705D51E4A1378DBB21370A8
:1024700002232B70E30644BF10232B7003B0BDE88A
:10248000F08F00BFC0200740F4470000B091FF1F4D
:10249000E894FF1F2894FF1F0C94FF1F942007400F
:1024A0000494FF1FE094FF1FA193FF1FC80040008A
:1024B0003893FF1F98200740E493FF1F4C93FF1FA2
:1024C0009093FF1FD894FF1F0E94FF1F88004000B9
:1024D000802007405093FF1FA093FF1F0080FF1F25
:1024E000A493FF1F882007408C20074084200740CA
:1024F0003C93FF1F10B5FFF7EFFB00231948194667
:102500001950C4180833882B164A6160F8D116494F
:102510000B6843F480230B60144BC2F3072119703E
:10252000C2F30741120E19751A76114AFF23137070
:102530000021137202F8703C0123137582F8801099
:1025400013710C4B70226FF450711A700B444FF4DE
:1025500000721A6003F1C04303F5C82310221A70F9
:1025600010BD00BF0080FF1F348004409C20074046
:102570008020074049E400E010B572B60B480268BD
:10258000B2FA82F10B2902DD62B6002010BD4FF0D5
:102590000043CB4022EA0302026062B6044C4823A7
:1025A0004B43E0180022E250426010BDD087FF1F6D
:1025B000BC83FF1F0C4B4822C31AB3FBF2F30B2B57
:1025C00011D80A4A127822B1094A12780AB1FFF7E3
:1025D0000BBC72B607494FF0004222FA03F30A68B7
:1025E0001A430A6062B67047BC83FF1F0E94FF1F38
:1025F0001794FF1FD087FF1F10B5104C23686BB1D5
:10260000206843885A1C03441C7A03889A4212D3D8
:10261000FFF7D0FF094B00221A600DE0084B1B7832
:1026200013B94FF0FF3010BD0320FFF7AFFB206060
:102630000028E5D1F5E74280204610BD2494FF1F15
:102640001794FF1F10B50B4C236813B122686AB9A9
:1026500002E0094B1B7813B94FF0FF3010BD032087
:10266000FFF794FB20600028F0D1F5E7538813446E
:10267000187A10BD2494FF1F1794FF1F044B9888ED
:10268000044B1A681AB1138852889B1A1844704771
:10269000D894FF1F2494FF1F10B5094B1B786BB112
:1026A000084C206818B1FFF785FF00232360032042
:1026B000FFF76CFB10B1FFF77DFFF8E710BD00BF1F
:1026C0001794FF1F2494FF1F2DE9F84F304DDFF8BA
:1026D000D080012381460C462B704646002C52D0F8
:1026E000D8F8003043BBDFF8A8A0DFF8ACB047F261
:1026F0000957284B1B7803F0FF010BB9297014E030
:102700000420FFF75FFB072807D801232B70FFF792
:1027100033FF306080B98AF80000013F02D09BF897
:10272000003033B11C4B01221A704FF0FF30BDE86E
:10273000F88F00F0A7FCDCE7174B00211970316817
:102740004B88C3F14000A04228BF20461F180B440D
:102750004F80241A073309EB0007B94504D019F854
:10276000010B03F8010FF8E74B883F2B06D94023F4
:102770000B800420FFF774FB00233360074B052216
:102780001A70B946AAE72C702046BDE8F88F00BF42
:102790001A94FF1F1794FF1F2094FF1F1994FF1F07
:1027A0001C94FF1F07B502AB012103F8010D184669
:1027B000FFF78AFF03B05DF804FBFFFF2DE9F0414E
:1027C000114B1B78F3B1114F114B3C68114D012691
:1027D0001E7098464CB1002663882E7021462380D7
:1027E0000420FFF73DFB3E6009E0FFF7C5FE014610
:1027F00020B104202C70FFF733FB00E02E70002383
:1028000088F80030BDE8F0811794FF1F1C94FF1F6B
:102810001A94FF1F1994FF1F38B50E4B1B7803F055
:10282000FF05ABB90C4C216831B14B880B800420FB
:10283000FFF716FB256038BDFFF79EFE014620B16D
:102840000420BDE83840FFF70BBB044B01221A708F
:1028500038BD00BF1A94FF1F1C94FF1F1994FF1F5F
:10286000164AF8B51368164D43F080731360154A85
:10287000136843F001031360134B2E681C688CB17E
:10288000237A6BB123682F681B68204698472A6813
:10289000E388D21B120991B29A42A18088BFE180DD
:1028A0006469ECE72B68094A9B1B1B0999B21180EC
:1028B000074A1088834288BF1180F8BDFCED00E014
:1028C000041000E0001000E02C94FF1F3294FF1F62
:1028D0003094FF1F0368C9B21B6818470368C9B268
:1028E0001B6818470368C9B21B68184708B5084633
:1028F000FEF76EFA012008BD08B50846FEF768FA33
:10290000012008BD38B508460D4601F0F9FB044624
:1029100001462846FEF7ACFA204638BD10B50846F9
:1029200014461146FEF7A4FA204610BDFEF708BB78
:10293000FEF76ABB08B50846FEF724FA003018BF58
:10294000012008BD08B50846FEF7FAF9003018BFA7
:10295000012008BD08461146FEF796B90846FEF765
:10296000C9B90846FEF774B9FEF73EB94B0803F142
:10297000B76000F55840B0FBF1F0FEF7A7B810B50E
:102980004B0803F1B760144600F55840B0FBF1F076
:10299000FEF79CF82046BDE81040FEF7FBB8FEF7B6
:1029A000C5BAFEF719BBFEF7EDBAFEF7DBBAFFFFBB
:1029B000044B00221A714FF47A711A73024A99601B
:1029C0001A6070473494FF1F504800000368C9B272
:1029D0001B6818470368C9B21B6818470368C9B267
:1029E0001B6818470368C9B21B68184708B5084632
:1029F000FEF74CFD012008BD08B50846FEF746FD70
:102A0000012008BD38B508460D4601F079FB0446A3
:102A100001462846FEF78AFD204638BD10B5084617
:102A200014461146FEF782FD204610BDFEF7E6BDB6
:102A3000FEF748BE08B50846FEF70AFD003018BF8D
:102A4000012008BD08B50846FEF7E0FC003018BFBD
:102A5000012008BD08461146FEF77ABC0846FEF77D
:102A6000ADBC0846FEF758BCFEF7FEBB4B0803F1B1
:102A7000B76000F55840B0FBF1F0FEF767BB10B54A
:102A80004B0803F1B760144600F55840B0FBF1F075
:102A9000FEF75CFB2046BDE81040FEF7BBBBFEF72F
:102AA000A3BDFEF7F7BDFEF7CBBDFEF7B9BD70477E
:102AB000044B00221A714FF47A711A73024A99601A
:102AC0001A6070474494FF1FB04800000368C9B201
:102AD0001B6818470368C9B21B6818470368C9B266
:102AE0001B6818470368C9B21B68184708B5084631
:102AF000FEF7B0FF012008BD08B50846FEF7AAFFA3
:102B0000012008BD38B508460D4601F0F9FA044623
:102B100001462846FEF7EEFF204638BD10B50846B0
:102B200014461146FEF7E6FF204610BDFEF7F8BF3B
:102B3000FFF75AB808B50846FEF76EFF003018BF19
:102B4000012008BD08B50846FEF744FF003018BF55
:102B5000012008BD08461146FEF712BF0846FEF7E1
:102B600037BF0846FEF7F0BEFEF7BABE4B0803F1CA
:102B7000B76000F55840B0FBF1F0FEF745BE10B568
:102B80004B0803F1B760144600F55840B0FBF1F074
:102B9000FEF73AFE2046BDE81040FEF777BEFEF78E
:102BA000B5BFFFF709B8FEF7DDBFFEF7CBBF704733
:102BB000044B00221A714FF47A711A73024A996019
:102BC0001A6070475494FF1F10490000024B012205
:102BD0001A60024B1B6818470C7103406C94FF1F6E
:102BE000024B01221A60024B5B6818471C710340BC
:102BF0006C94FF1F024B01221A60024B9B6818471E
:102C00002C7103406C94FF1F024B01221A60024B8F
:102C1000DB6818473C7103406C94FF1F054B012291
:102C20001A60054A136823F400031360034B002263
:102C30001A707047007003403C8004406894FF1F86
:102C40008268002310B41360027B0121541102F04A
:102C50001F0201FA02F2084941F82420074A41788C
:102C60005354D15C29B90133042BFAD110BCFFF7BE
:102C7000D5BF10BC704700BF80E100E06494FF1F27
:102C8000037810B504460BB1FFF7DAFF0023237079
:102C900010BD2DE9F04100258C688AB007468846B2
:102CA0002E4694B12B46212201A9404600F06DF931
:102CB0003B68202C22465B6828BF202201A93846A9
:102CC0001544A41A98470644EBE730460AB0BDE81D
:102CD000F081FFFF07B5064B1B88ADF80430036891
:102CE00002225B6801A9984703B05DF804FB00BFAE
:102CF0006849000070B505468AB022B90368C9B2B8
:102D00001B6898472FE0012A08BF0A2209B1212039
:102D100004E030228DF82520212014E0B1FBF2F6EA
:102D200002FB1611CCB2092994BF04F1300104F161
:102D300037010AAC0444C9B204F8241C314616B168
:102D40000138C0B2EAE733B10138C0B20AAB03447C
:102D50002D2203F8242C2B6801A9C0F12202014482
:102D60005B68284698470AB070BD0029BABF49423F
:102D70002D2300230A22FFF7BDBF10B50446FFF73D
:102D80007FFF204610BDFFFF0448054A0549002388
:102D900003708023437300F095B900BF7C94FF1F3C
:102DA0002087FF1F7B2D000010B50446006800F04F
:102DB000E5F9204610BD38B504460D4600680131DE
:102DC00000F0B4FD10B184E82100012038BD436853
:102DD0008B4210B5044606D2FFF7EDFF20B1A36881
:102DE0000BB922681370012010BDF8B504460F46D8
:102DF000154622B9036803B11A7000230BE011468F
:102E0000FFF7E5FF064640B9206810B100F0B6F9BB
:102E1000266000236360A36004E0A5603946206853
:102E200001F0FCF82046F8BD38B5002304460360E5
:102E30004360836003730D4639B1084601F060F9C1
:102E4000294602462046FFF7D0FF204638BD38B558
:102E5000054608460C4601F053F92146024628462D
:102E6000BDE83840FFF7C1BF814203D08A680968D6
:102E7000FFF7BBBF704710B50023044603604360F3
:102E800083600373FFF7F0FF204610BD10B50446C2
:102E900011B1FFF7DCFF00E0A160204610BD2DE975
:102EA000F843036885688B4204460E46904606D870
:102EB0005A19914203D2C3EB0109012700E0002710
:102EC000B8F1000F17D0454429462046FFF77FFF91
:102ED00088B1A06823684FB1424603EB090118444A
:102EE00000F022FC236800225A5503E031461844C2
:102EF00001F094F8A5602046BDE8F88313B50023DF
:102F00008DF80410012201A904468DF80530FFF761
:102F1000C6FF204602B010BD10B58A680968044695
:102F2000FFF7BDFF204610BD826808B50B4612B9F9
:102F300019B9012008BD11B90368187802E00068CA
:102F400000F002FFB0FA80F0400908BD10B58368B8
:102F500014468A689B1AA3420AD3006858B10968CC
:102F600041B1204401F03AF9B0FA80F0400910BDB7
:102F7000002010BD084610BD82688B689A4202D3BB
:102F80000022FFF7E3BF0020704770B50E469AB1EC
:102F900091B185689D4202D800230B7070BD541E0C
:102FA000ED1A0168AC4228BF2C461944224630462F
:102FB00001F064F90023335570BD38B50446084666
:102FC000A3688B4211D982B111448B4238BF1A1ABF
:102FD00025689B1A1118A3601A1A2944284400F086
:102FE0003DFC2268A3680021D154204638BD2DE95C
:102FF000F041076806460FB38468FCB13D46287867
:1030000005F1010800F092F808B14546F7E7013CE8
:103010003C44207800F08AF818B1A54201D8013C60
:10302000F7E7621C521BBD42B26003D929463846FD
:1030300000F07AFB3268B3680021D1543046BDE815
:10304000F081FFF729BBFFF7B9BBFFF7FBBAFFF72A
:10305000D3BAFFF713BB08461146FFF735BB084646
:10306000FFF7A0BB7047FFFF044B00221A714FF41B
:103070007A711A73024A99601A6070479094FF1F20
:103080007449000010B50E4C2378BBB9012323709E
:10309000FFF7F4FA08B1FFF7E5FFFDF763FF08B1AA
:1030A000FDF748FAFEF7BCFA08B1FFF700FDFEF79E
:1030B00049FD08B1FFF77BFD0023237010BD00BF61
:1030C000A094FF1F0B460146184600F001B800BF50
:1030D00013460A460146022001F012B970B50F4EA0
:1030E0000F4D761BB61018BF002405D0013455F8DB
:1030F000043B9847A642F9D10A4E0B4D761B01F0CE
:10310000D5FCB61018BF002406D0013455F8043B96
:103110009847A642F9D170BD70BD00BFB84A000003
:10312000B84A0000D84A0000B84A000010B504466A
:1031300000F012F82044407800F0080010BD00BFF5
:10314000034A044B1268506B002808BF18467047AA
:10315000008CFF1F048CFF1F08B5034B1868FFF796
:10316000EFFFD0F8EC0008BD008CFF1F024B0146BA
:10317000186800F00BB800BF008CFF1F024B01461F
:10318000186801F081B900BF008CFF1F2DE9F04FD6
:1031900001F10B05162D83B0064640F29F8035F0F5
:1031A000070500F1BF80A94200F2BC8000F0BAFB25
:1031B000B5F5FC7FC0F09C826B0A00F0BA80042B4E
:1031C00000F28381A80900F1390E4FEA4E0338302E
:1031D000C44F07EB8303A3F108015C68A14207D148
:1031E000ACE0002A80F2AC80E468A14200F0A68046
:1031F000636823F003035A1B0F2AF2DDB9493C69C7
:1032000001F1080E744500F0B381636823F00303F5
:103210005A1B0F2A00F39981002AC1F814E0C1F863
:1032200010E080F29E80B3F5007F80F06781DB08BC
:1032300003F1010C01229B1002FA03F34A6851F8D2
:103240003C80C4F8088001EBCC091A43A9F10803BB
:10325000E3604A6041F83C40C8F80C408310012408
:103260009C40944200F28A80144206D120F0030070
:103270006400144200F10400FAD007EBC009CC4608
:103280008046DCF80C108C4507D173E1002A80F2EF
:103290008181C9688C4500F06D814B6823F0030380
:1032A0005A1B0F2AF2DD0C46D1F80CC054F8088FD7
:1032B0004B1945F001054D6042F00101C8F80CC002
:1032C0003046CCF808807B613B61C3F80CE0C3F862
:1032D00008E059609A5000F027FB1FE0102921D820
:1032E00000F020FB1025062302207E4F07EB83030E
:1032F000A3F108025C68944200F045816368E168CC
:10330000A56823F00303234430465A68E96042F07D
:1033100001028D605A6000F007FB0834204603B0BC
:10332000BDE8F08F00240C232046336003B0BDE8D5
:10333000F08F80234FF0400E3F2049E770465DE755
:103340002344E1685A68A56842F00102E96030460A
:103350008D605A6000F0E8FA0834204603B0BDE8FA
:10336000F08F234430465A6842F001025A6000F060
:10337000DBFA0834204603B0BDE8F08FBC68636810
:1033800023F00308A84504D3C5EB08030F2B00F373
:103390008C80554BDFF860911A68D9F80030013302
:1033A0002A4404EB080A00F0608102F580520F32D3
:1033B00022F47F6222F00F0211463046019200F0A3
:1033C000ADFCB0F1FF3F8346019A00F05881824581
:1033D00000F2FC80454B1968DA451144196000F091
:1033E0005381D9F80000DFF810E101301BBFCAEBB0
:1033F0000B0A5144CEF800B019601BF0070100F031
:103400001781C1F10800C1F58051834408315A4445
:10341000C2F30B02C2EB010949463046019300F0AA
:103420007DFC431C019B00F03F81CBEB00024A4432
:1034300042F001021968C7F808B04944BC42CBF811
:1034400004201960DFF8A49016D0B8F10F0F40F2F5
:10345000FD806268A8F10C0323F00703E01802F076
:1034600001024FF0050E1A430F2B6260C0F804E012
:10347000C0F808E000F21C811D4BBC681A6891423C
:1034800088BF19601B4B1A689142626888BF196037
:1034900022F003029542A2EB050301D80F2B04DCB6
:1034A000304600F041FA002438E7621943F0010386
:1034B00045F0010565603046BA60536000F034FAAB
:1034C0000834204603B0BDE8F08F142B71D9542B7B
:1034D00000F2A480280B00F16F0E4FEA4E036E300D
:1034E00076E600BF708DFF1FAC94FF1FB094FF1FE6
:1034F000A894FF1FA494FF1F7C91FF1F5A0A042A5F
:103500005ED9142A00F2B38002F15C0149005B32FB
:1035100007EB810C57F82110DFF8DC81ACF1080CC7
:103520008C4500F088804A6822F00302934202D260
:1035300089688C45F7D1D1F80CC07A68C4F80CC002
:10354000A160CCF80840CC6088E6631942F001071E
:1035500045F00105656030464B610B61C3F80CE036
:10356000C3F808E05F609A50083400F0DDF9D5E652
:103570004A6873E608F1010818F0030F0CF1080C13
:103580007FF47FAE30E0DC68A34208BF02303FF436
:1035900035AEB3E60B440C465A68C96854F8085F68
:1035A00042F001025A603046E9608D6000F0BCF9DB
:1035B000B4E603F15C0E03F15B004FEA4E0307E64D
:1035C0009A0902F1390149003832A1E7BC424A4B5D
:1035D0003FF400AF9C68626822F003025AE759F892
:1035E0000839994540F0828010F0030F00F1FF3058
:1035F000F5D17B6823EA04037B6064009C423FF6BC
:10360000BDAE002C3FF4BAAE1C4240467FF435AE4E
:1036100064001C4200F10400FAD02EE6B3F5AA7F44
:1036200018D8E80B00F1780E4FEA4E037730CFE55B
:103630004FF48051EBE60121D8F80430921001FAE2
:1036400002F21A43C8F80420614677E70123CBF859
:10365000043025E740F25452934220D8A80C00F1E0
:103660007D0E4FEA4E037C30B2E51032A4E6542AB8
:1036700026D81A0B02F16F0149006E3248E7BC6888
:10368000626822F0030205E7CAF30B0000287FF40A
:10369000A8AE4244BB6842F001025A60ECE6FE2349
:1036A0004FF07F0E7E2093E501224FF00009C1E626
:1036B00004F10801304600F0E7FED9F80010DBE61F
:1036C000B2F5AA7F05D8DA0B02F17801490077320A
:1036D0001EE740F254518A4205D89A0C02F17D014E
:1036E00049007C3214E7FE217E2211E77B6884E7E3
:1036F000E808431C5B00F8E5708DFF1F82B049B1FC
:103700005AB16BB113780B601278101C18BF0120EE
:1037100002B0704701A9002AF3D1104602B07047E9
:103720006FF00100F4E700BF844641EA000313F0A4
:1037300003036DD1403A41D351F8043B40F8043BB8
:1037400051F8043B40F8043B51F8043B40F8043B7B
:1037500051F8043B40F8043B51F8043B40F8043B6B
:1037600051F8043B40F8043B51F8043B40F8043B5B
:1037700051F8043B40F8043B51F8043B40F8043B4B
:1037800051F8043B40F8043B51F8043B40F8043B3B
:1037900051F8043B40F8043B51F8043B40F8043B2B
:1037A00051F8043B40F8043B51F8043B40F8043B1B
:1037B00051F8043B40F8043B403ABDD2303211D3BB
:1037C00051F8043B40F8043B51F8043B40F8043BFB
:1037D00051F8043B40F8043B51F8043B40F8043BEB
:1037E000103AEDD20C3205D351F8043B40F8043BBB
:1037F000043AF9D2043208D0D2071CBF11F8013BB9
:1038000000F8013B01D30B8803806046704700BF7E
:10381000082A13D38B078DD010F003038AD0C3F18D
:103820000403D21ADB071CBF11F8013B00F8013B6F
:1038300080D331F8023B20F8023B7BE7043AD9D32E
:10384000013A11F8013B00F8013BF9D20B78037003
:103850004B7843708B788370604670478842F0B530
:103860000DD98B1898420AD28118002A51D09A1A81
:1038700013F8014D01F8014D9342F9D1F0BD0F2A23
:1038800048D941EA00039B0746D100F1100401F139
:103890001003154653F8106C44F8106C53F80C6C78
:1038A00044F80C6C53F8086C44F8086C103D53F85D
:1038B000046C44F8046C0F2D03F1100304F11004A0
:1038C000E8D8A2F1100323F00F0302F00F0E10331B
:1038D000BEF1030F1944034421D91E1F0D4674463F
:1038E000043C55F8047B46F8047F032CF8D8AEF16D
:1038F000040424F0030404342344214402F00302AA
:1039000062B1013B0A4411F8014B03F8014F8A42AE
:10391000F9D1F0BD0346F3E70346F2E7F0BD724686
:10392000EEE700BF704700BF704700BF024B0A467A
:103930000146186800F002B8008CFF1F2DE9F04F17
:10394000174683B0002900F0C1800E46814607F17A
:103950000B05FFF7E7FF56F804EC162D2EF00304D5
:10396000A6F1080840D810221546AF4241D894422B
:1039700075DAC94B996808EB04008842416800F089
:10398000D98021F0010303445B68DB077DD51EF07D
:10399000010F35D039464846FFF7F8FB0746E0B13E
:1039A00056F8043C23F001034344A0F108029A4274
:1039B00000F04481221F242A00F23181132A00F2F0
:1039C0000481034632461168196051685960926853
:1039D0009A603146484600F057FD4846FFF7A4FF7D
:1039E000384603B0BDE8F08F25F00705002D2A46C4
:1039F000BBDA0C230020C9F8003003B0BDE8F08F1B
:103A000056F8083CC3EB080ADAF8043023F0030C3C
:103A100004EB0C039342BDDB5746DAF80C1057F861
:103A2000080F221F242AC160886000F21781132A20
:103A300040F212813168CAF808107168CAF80C1097
:103A40001B2A00F22B8108360AF11002316811603E
:103A500071685160B16891603E461C46D046631B58
:103A60000F2B1DD8D8F8043003F00103234344443E
:103A7000C8F80430636843F0010363604846FFF709
:103A800053FF304603B0BDE8F08F21F0030121441D
:103A9000914221DBC36882680C46D3609A60DEE7FE
:103AA000D8F8042008EB050102F00102154343F0A9
:103AB00001020B44C8F804504A605A6842F00102FF
:103AC00008315A60484600F0DFFCD7E7114603B0E2
:103AD000BDE8F04FFFF75ABB1EF0010F7FF45AAF5D
:103AE00056F8083CC3EB080ADAF8043023F0030C5C
:103AF00001EB0C0E96458BDBC36882685746D3609A
:103B00009A6057F8081FDAF80C30CB60221F242A7D
:103B1000996000F29980132A62D93368CAF8083094
:103B20007368CAF80C301B2A00F2A08008360AF12C
:103B3000100356E021F0030BA34405F11000834568
:103B400059DA1EF0010F7FF425AF56F8081CC1EBBF
:103B5000080ADAF8041021F0030CE34458453FF753
:103B600057AF5746DAF80C1057F8080F221F242ACF
:103B7000C160886000F2B480132A40F2A5803168E9
:103B8000CAF808107168CAF80C101B2A00F2AF803E
:103B900008360AF110023168116071685160B1682D
:103BA00091600AEB0501C5EB0B0242F0010299603E
:103BB0004A60DAF8043003F001031D434846CAF8AE
:103BC0000450FFF7B1FE38465CE733680360736862
:103BD00043601B2A27D800F1080306F10802F2E629
:103BE0003B4632681A6072685A60B2689A603E4614
:103BF0007446D04633E708EB0501C5EB0B0B4BF0E1
:103C0000010299604A6056F8043C03F001031D4329
:103C1000484646F8045CFFF787FE304632E73146F7
:103C2000FFF71CFED5E6B3688360F368C360242AFF
:103C300028D000F1100306F11002C4E650F8043C4D
:103C400023F003031C440AE7314638467446D04645
:103C5000FFF704FE3E4602E73A46F7E631463846AD
:103C60001C46D046FFF7FAFD3E46F8E6B368CAF8B0
:103C70001030F368CAF81430242A1BD010360AF129
:103C80001803AEE7336903617369436106F11802F3
:103C900000F1180397E600BF708DFF1FB168CAF8E6
:103CA0001010F168CAF81410242A0FD010360AF147
:103CB0001802CBE63369CAF818307369CAF81C30A9
:103CC00018360AF120038CE73A4664E73269CAF8ED
:103CD00018207269CAF81C2018360AF12002B5E6CD
:103CE000314638460193FFF7B9FD019B59E7B168AA
:103CF000CAF81010F168CAF81410242A03D010363C
:103D00000AF1180247E73269CAF818207269CAF83E
:103D10001C2018360AF120023DE700BF38B5074CD9
:103D20000023054608462360FCF798FD431C00D09D
:103D300038BD2368002BFBD02B6038BDEC94FF1FEF
:103D4000A2EB0300704700BF02780B78012A28BF5E
:103D50009A42F5D16DE9044540EA0104CDE90267D4
:103D60006FF0000C4FEA447212B380EA010414F0C1
:103D7000070F6AD100F0070420F0070004F00305E4
:103D800021F007014FEAC505F0E8042314F0040F01
:103D9000F1E804670CFA05F462EA040266EA040634
:103DA0000AD063EA0403624667EA0407664603E052
:103DB000F0E80423F1E8046782FA4CF582EA06048D
:103DC000A4FA8CF46CBB83FA4CF583EA0705A5FAD8
:103DD0008CF595B950E9022351E9026782FA4CF556
:103DE00082EA0604A4FA8CF483FA4CF583EA070508
:103DF000A5FA8CF52543DBD09CB92DBAB5FA85F42C
:103E000024F0070427FA04F1DDE9026723FA04F33A
:103E100003F0FF0001F0FF01FDE80445A0EB010005
:103E2000704724BAB4FA84F424F0070426FA04F1A3
:103E3000DDE9026722FA04F202F0FF0001F0FF015F
:103E4000FDE80445A0EB0100704714F0030F3CD1DE
:103E500010F0030428D150F8082B51F8083B82FADF
:103E60004CF582EA0305A5FA8CF55DB950F8042CEF
:103E700051F8043C82FA4CF582EA0305A5FA8CF568
:103E8000002DE8D02DBAB5FA85F424F0070423FA02
:103E900004F122FA04F202F0FF0001F0FF01FDE854
:103EA0000445A0EB010070474FEAC40420F0030072
:103EB00050F8082B21F0030151F8083B0CFA04F4E8
:103EC00062EA040263EA0403C9E710F003041AD0AB
:103ED000A1EB040120F00300E40750F8042B06D006
:103EE0000FD28B785FFAA2F4E41A06D12BB1CB780B
:103EF0005FFAB2F4E41A00D11BB920465DF8104B0A
:103F0000704701F1040150F8042BCC0721F00301A4
:103F100051F8043B48D824D222F07F4482FA4CF571
:103F200094EA1325A5FA8CF50AD165B951F8043B3A
:103F300084EA0204B4EB036F0ED150F8042BEBE7D4
:103F40004FEA132355E035F07F454DD10878FDE861
:103F50000445C0F1000070474FEA126203F0FF030E
:103F600047E002EA1C4482FA4CF594EA1345A5FAAC
:103F70008CF50AD165B951F8043B84EA0204B4EB2C
:103F8000034F0CD150F8042BEBE74FEA134330E01A
:103F900015EA1C4528D10B884FEA124229E04FEA66
:103FA000124203EA1C4324E002F0FF0482FA4CF5BB
:103FB00094EA1365A5FA8CF50AD165B951F8043B6A
:103FC00084EA0204B4EB032F09D150F8042BEBE789
:103FD0004FEA13630DE015F0FF0F05D10B684FEAB0
:103FE000122223F07F4304E04FF00000FDE8044577
:103FF000704712BA1BBA82FA4CF482EA0304A4FA9C
:104000008CF5B5FA85F402FA04F203FA04F34FEAE8
:104010001260FDE80445A0EB1360704780EA0102DE
:10402000844612F0030F4FD111F0030F32D14DF837
:10403000044D11F0040F51F8043B0BD0A3F10132F1
:104040009A4312F0803F04BF4CF8043B51F8043B04
:1040500016D100BF51F8044BA3F101329A4312F07C
:10406000803FA4F101320BD14CF8043BA24312F083
:10407000803F04BF51F8043B4CF8044BEAD0234680
:104080000CF8013B13F0FF0F4FEA3323F8D15DF832
:10409000044B704711F0010F06D011F8012B0CF8FA
:1040A000012B002A08BF704711F0020FBFD031F872
:1040B000022B12F0FF0F16BF2CF8022B8CF80020F9
:1040C00012F47F4FB3D1704711F8012B0CF8012B7C
:1040D000002AF9D1704700BFFFFFFFFFFFFFFFFF7E
:1040E000FFFFFFFFFFFFFFFFFFFFFFFFFFFFFFFFE0
:1040F000FFFFFFFFFFFFFFFFFFFFFFFFFFFFFFFFD0
:1041000090F800F06DE9024520F007016FF0000C17
:1041100010F0070491F820F040F049804FF00004BF
:104120006FF00700D1E9002391F840F000F108009A
:1041300082FA4CF2A4FA8CF283FA4CF3A2FA8CF3D2
:104140004BBBD1E9022382FA4CF200F10800A4FA39
:104150008CF283FA4CF3A2FA8CF3E3B9D1E904238D
:1041600082FA4CF200F10800A4FA8CF283FA4CF3C4
:10417000A2FA8CF37BB9D1E9062301F1200182FA7E
:104180004CF200F10800A4FA8CF283FA4CF3A2FA84
:104190008CF3002BC6D0002A04BF04301A4612BA92
:1041A000B2FA82F2FDE8024500EBD2007047D1E995
:1041B000002304F00305C4F100004FEAC50514F024
:1041C000040F91F840F00CFA05F562EA05021CBFF5
:1041D00063EA050362464FF00004A9E7002A41D0D4
:1041E00040EA010313F00303F0B425D1032A23D9D5
:1041F00004680D68AC421FD1043A35D0A4F10135F2
:1042000025EA040414F0803F31D1071D0D1D0DE097
:1042100057F8043B0E68A3F10134B34224EA0304C7
:104220000AD1043A20D014F0803F23D1032A294632
:10423000384605F10405EBD803780C789C4202F16E
:10424000FF320CD182B114B916E06AB17BB110F81B
:10425000013F11F8014FA34202F1FF32F5D0181BC4
:10426000F0BC7047104670471046F0BC70471846C7
:10427000F0BC70470020F3E72046F1E740EA010375
:104280009B0770B42BD1032A29D90C46034621463B
:1042900054F8046BA6F1013525EA060515F0803FB8
:1042A00006D1043A032A43F8046B2146EFD8A2B1A1
:1042B0000C781C70013A013301313CB16AB111F83C
:1042C000014B03F8014B013A002CF7D12AB11A44F3
:1042D000002103F8011B9A42FBD170BC70470346D2
:1042E000E5E700BF21B1FF2A04D80A70012070471A
:1042F000084670478A2303604FF0FF30704700BFC5
:104300002DE9F047254C2568D5F8484106468846F2
:1043100092469946C4B360681F2817DC431C76B1E7
:1043200004EB80050122C5F888A0D4F888118240EA
:104330001143022EC4F88811C5F808911ED002302E
:10434000636044F820800020BDE8F087144B03B37D
:104350004FF4C870FEF70AFF0446D0B1D5F84831D3
:10436000002780E88800C5F8484138460123C4F892
:104370008871C4F88C71002EE1D0D1E7D4F88C118B
:104380000A43C4F88C21DAE705F5A674C5F848415C
:10439000C1E74FF0FF30BDE8F08700BF9049000053
:1043A0006D310000024B13B1024800F005B87047B0
:1043B00000000000C5430000002301461A461846CD
:1043C000FFF79EBF38B5074D074C2C1BA41005D036
:1043D000013C55F8043D9847002CF9D1BDE8384020
:1043E00000F07ABB0000000000000000F8B5234F89
:1043F0000C460646FFF796FABB685D6825F0030594
:10440000291B01F6EF7121F47F6121F00F01A1F565
:104410008054B4F5805F07DB00213046FFF77EFC57
:10442000BB682B44984204D03046FFF77DFA002049
:10443000F8BD61423046FFF771FC01300DD0104BE2
:10444000BA6819682D1B45F001053046091B5560F7
:104450001960FFF769FA0120F8BD00213046FFF727
:104460005DFCBA68831A0F2BDEDD064C0449246814
:1044700043F00103001B53600860D5E7708DFF1FF8
:10448000B094FF1F7C91FF1F002945D02DE9F0411A
:104490000D468046FFF746FA55F8047C6A4927F036
:1044A0000103A5F10804E2188E685068B24220F0BA
:1044B000030062D0FE0750600BD455F8087CE41B63
:1044C00001F1080EA56875453B446FD0E768EF60C1
:1044D000BD6015186D68ED0742D543F001026260BA
:1044E000E350B3F5007F18D2DB085A1C4D6851F831
:1044F0003270A76001209B1000FA03F301EBC200A9
:104500001D430838E0604D6041F83240FC60404691
:10451000BDE8F041FFF708BA70475A0A042A53D899
:104520009A0902F139077F0002F1380501EB870093
:1045300051F827204449083890424DD0516821F065
:1045400003018B4202D292689042F7D1D068E060BA
:10455000A2608460D4604046BDE8F041FFF7E4B952
:1045600095683A4FBD4203443FD0D068E86043F0BD
:10457000010285606260E350B3E7FF07034407D49C
:1045800055F8082CA41A1344A068E268C260906031
:104590002F4A126843F00100934260608C60B6D3EA
:1045A0002C4B40461968FFF721FFB0E71118496806
:1045B000C90744D49168D268CA60034443F001003B
:1045C00091606060E350A2E7142A17D802F15C07FB
:1045D0007F0002F15B05A9E7AA104B68012505FAE7
:1045E00002F213434B600246B1E743F001024C6113
:1045F0000C61E560A5606260E35088E7542A06D844
:104600001A0B02F16F077F0002F16E058EE7B2F51B
:10461000AA7F06D8DA0B02F178077F0002F177054E
:1046200084E740F25450824206D89A0C02F17D078A
:104630007F0002F17C0579E7FE277E2576E743F0CF
:1046400001026260E35062E7708DFF1F788DFF1FEB
:104650007891FF1FAC94FF1F2B495052002B434D04
:104660004752002B434D4744005374617274696E86
:10467000672E2E2E004F4B002B434D47523A2022DF
:104680005245432052454144222C222B34353230AE
:10469000323032303230222C2C2230372F30342F2F
:1046A00032302C31303A30383A30322B3332220D1E
:1046B0000A31323334203F0D0A00436F6D6D616E55
:1046C00064207265636569766564203A00FF6FF067
:1046D0007F030370037813F0800FFBD07047FFFF58
:1046E0004008FE4340A004404408FE4344A0044068
:1046F0000018FE4300C004403000FE4330900440E8
:104700003400FE43349004401C18FE431CC0044097
:104710001018FE4310C004400818FE4308C00440AF
:104720000C18FE430CC004400C10FE430CB00440B7
:104730001010FE4310B004401810FE4318B004409F
:104740001C10FE431CB004401410FE4314B004407F
:104750000418FE4304C004400010FE4300B00440AF
:104760000008FE4300A004400408FE4304A00440E7
:104770000C08FE430CA004400808FE4308A00440B7
:104780001418FE4314C004401818FE4318C0044017
:104790000410FE4304B004400810FE4308B0044077
:1047A0001400FE43149004404C08FE434CA0044007
:1047B0000420FE4304D004402410FE4324B00440EF
:1047C0002010FE4320B004402810FE4328B00440CF
:1047D0002C10FE432CB004400020FE4300D00440C7
:1047E0004808FE4348A004401000FE4310900440D7
:1047F00000151915000100003087FF1F120000008E
:10480000000200005A87FF1F430000000003000061
:10481000B487FF1F00000000010309044287FF1F47
:1048200000000000020309049E87FF1F0000000033
:1048300003030904B887FF1F000000000000000008
:104840000000000000000000000000000000000068
:10485000F92800001D290000AB290000A72900004D
:10486000A32900009F2900006D2900007F29000076
:1048700069290000632900005D2900005529000016
:104880004529000035290000312900002D290000AC
:10489000D5280000DD280000E52800006D04000098
:1048A00005290000ED2800000000000000000000C5
:1048B000F92900001D2A0000AB2A0000A72A0000E9
:1048C000A32A00009F2A00006D2A00007F2A000012
:1048D000692A0000632A00005D2A0000552A0000B2
:1048E000452A0000352A0000312A00002D2A000048
:1048F000CD290000D5290000DD290000E5290000B0
:10490000052A0000ED290000000000000000000062
:10491000F92A00001D2B0000AB2B0000A72B000084
:10492000A32B00009F2B00006D2B00007F2B0000AD
:10493000692B0000632B00005D2B0000552B00004D
:10494000452B0000352B0000312B00002D2B0000E3
:10495000CD2A0000D52A0000DD2A0000E52A00004B
:10496000052B0000ED2A00000D0AFFFF00000000EB
:10497000000000005F30000057300000533000009E
:104980004F3000004B300000473000004330000043
:10499000D887FF1F43000000504F534958000000C4
:1049A000000000002E0000000020202020202020F9
:1049B00020202828282828202020202020202020CF
:1049C00020202020202020202088101010101010DF
:1049D000101010101010101010040404040404042B
:1049E00004040410101010101010414141414141C5
:1049F00001010101010101010101010101010101A7
:104A000001010101101010101010424242424242B6
:104A10000202020202020202020202020202020276
:104A2000020202021010101020000000000000001E
:104A30000000000000000000000000000000000076
:104A40000000000000000000000000000000000066
:104A50000000000000000000000000000000000056
:104A60000000000000000000000000000000000046
:104A70000000000000000000000000000000000036
:104A80000000000000000000000000000000000026
:104A90000000000000000000000000000000000016
:104AA000000000000000000000FFFFFFF8B500BF9D
:104AB000F8BC08BC9E467047A543000035040000C2
:104AC00085060000B1290000B12A0000B12B0000CA
:084AD000892D0000693000008F
:044AD800F8B500BF6E
:104ADC00000000000A040000F094FF1F01090A08FE
:104AEC001201010102000040C01683040002010201
:104AFC00030118035400650065006E007300790013
:104B0C006400750069006E006F0009024300020129
:104B1C0000C032090400000102020100052400104B
:104B2C0001052401010104240206052406000107E5
:104B3C0005820310004009040100020A000000076E
:104B4C000503024000000705840240000000160324
:104B5C0055005300420020005300650072006900AC
:104B6C0061006C00040309040C0300000000000049
:104B7C000000000000000000000000000000000029
:104B8C00FFFFFFFF0000000000000000C48AFF1FB1
:104B9C002C8BFF1F948BFF1F0000000000000000F7
:104BAC0000000000000000000000000000000000F9
:104BBC0000000000000000000000000000000000E9
:104BCC0000000000000000000000000000000000D9
:104BDC0000000000000000000000000000000000C9
:104BEC0000000000000000000000000000000000B9
:104BFC0000000000000000000000000000000000A9
:104C0C000000000000000000000000000000000098
:104C1C000000000000000000000000000000000088
:104C2C000000000000000000000000000000000078
:104C3C0001000000000000000E33CDAB34126DE615
:104C4C00ECDE05000B00000000000000000000007E
:104C5C000000000000000000000000000000000048
:104C6C000000000000000000000000000000000038
:104C7C000000000000000000000000000000000028
:104C8C000000000000000000000000000000000018
:104FBC00D887FF1F43000000000000000000000025
:104FCC0000000000000000000000000000000000D5
:104FDC000000000043000000000000000000000082
:104FEC0000000000000000000000000000000000B5
:104FFC000000000043000000000000000000000062
:10500C000000000000000000000000000000000094
:10501C000000000043000000000000000000000041
:10502C000000000000000000000000000000000074
:10503C000000000043000000000000000000000021
:10504C000000000000000000000000000000000054
:10505C000000000043000000000000000000000001
:10506C000000000000000000000000000000000034
:10507C0000000000430000000000000000000000E1
:10508C000000000000000000000000000000000014
:10509C0000000000E5420000FD36000000000000AA
:1050AC00A8490000A4490000A0490000A049000044
:1050BC00A0490000A0490000A0490000A049000040
:1050CC00A0490000A0490000A0490000FFFFFFFF1D
:1050DC00FFFFFFFFFFFFFFFFFFFF00000100415339
:1050EC0043494900000000000000000000000000DF
:1050FC000000000000000000000000000000415310
:10510C0043494900000000000000000000000000BE
:10511C000000000000000000000000000000000083
:10512C000000000000000000708DFF1F708DFF1F3D
:10513C00788DFF1F788DFF1F808DFF1F808DFF1FC7
:10514C00888DFF1F888DFF1F908DFF1F908DFF1F77
:10515C00988DFF1F988DFF1FA08DFF1FA08DFF1F27
:10516C00A88DFF1FA88DFF1FB08DFF1FB08DFF1FD7
:10517C00B88DFF1FB88DFF1FC08DFF1FC08DFF1F87
:10518C00C88DFF1FC88DFF1FD08DFF1FD08DFF1F37
:10519C00D88DFF1FD88DFF1FE08DFF1FE08DFF1FE7
:1051AC00E88DFF1FE88DFF1FF08DFF1FF08DFF1F97
:1051BC00F88DFF1FF88DFF1F008EFF1F008EFF1F45
:1051CC00088EFF1F088EFF1F108EFF1F108EFF1FF3
:1051DC00188EFF1F188EFF1F208EFF1F208EFF1FA3
:1051EC00288EFF1F288EFF1F308EFF1F308EFF1F53
:1051FC00388EFF1F388EFF1F408EFF1F408EFF1F03
:10520C00488EFF1F488EFF1F508EFF1F508EFF1FB2
:10521C00588EFF1F588EFF1F608EFF1F608EFF1F62
:10522C00688EFF1F688EFF1F708EFF1F708EFF1F12
:10523C00788EFF1F788EFF1F808EFF1F808EFF1FC2
:10524C00888EFF1F888EFF1F908EFF1F908EFF1F72
:10525C00988EFF1F988EFF1FA08EFF1FA08EFF1F22
:10526C00A88EFF1FA88EFF1FB08EFF1FB08EFF1FD2
:10527C00B88EFF1FB88EFF1FC08EFF1FC08EFF1F82
:10528C00C88EFF1FC88EFF1FD08EFF1FD08EFF1F32
:10529C00D88EFF1FD88EFF1FE08EFF1FE08EFF1FE2
:1052AC00E88EFF1FE88EFF1FF08EFF1FF08EFF1F92
:1052BC00F88EFF1FF88EFF1F008FFF1F008FFF1F40
:1052CC00088FFF1F088FFF1F108FFF1F108FFF1FEE
:1052DC00188FFF1F188FFF1F208FFF1F208FFF1F9E
:1052EC00288FFF1F288FFF1F308FFF1F308FFF1F4E
:1052FC00388FFF1F388FFF1F408FFF1F408FFF1FFE
:10530C00488FFF1F488FFF1F508FFF1F508FFF1FAD
:10531C00588FFF1F588FFF1F608FFF1F608FFF1F5D
:10532C00688FFF1F688FFF1F708FFF1F708FFF1F0D
:10533C00788FFF1F788FFF1F808FFF1F808FFF1FBD
:10534C00888FFF1F888FFF1F908FFF1F908FFF1F6D
:10535C00988FFF1F988FFF1FA08FFF1FA08FFF1F1D
:10536C00A88FFF1FA88FFF1FB08FFF1FB08FFF1FCD
:10537C00B88FFF1FB88FFF1FC08FFF1FC08FFF1F7D
:10538C00C88FFF1FC88FFF1FD08FFF1FD08FFF1F2D
:10539C00D88FFF1FD88FFF1FE08FFF1FE08FFF1FDD
:1053AC00E88FFF1FE88FFF1FF08FFF1FF08FFF1F8D
:1053BC00F88FFF1FF88FFF1F0090FF1F0090FF1F3B
:1053CC000890FF1F0890FF1F1090FF1F1090FF1FE9
:1053DC001890FF1F1890FF1F2090FF1F2090FF1F99
:1053EC002890FF1F2890FF1F3090FF1F3090FF1F49
:1053FC003890FF1F3890FF1F4090FF1F4090FF1FF9
:10540C004890FF1F4890FF1F5090FF1F5090FF1FA8
:10541C005890FF1F5890FF1F6090FF1F6090FF1F58
:10542C006890FF1F6890FF1F7090FF1F7090FF1F08
:10543C007890FF1F7890FF1F8090FF1F8090FF1FB8
:10544C008890FF1F8890FF1F9090FF1F9090FF1F68
:10545C009890FF1F9890FF1FA090FF1FA090FF1F18
:10546C00A890FF1FA890FF1FB090FF1FB090FF1FC8
:10547C00B890FF1FB890FF1FC090FF1FC090FF1F78
:10548C00C890FF1FC890FF1FD090FF1FD090FF1F28
:10549C00D890FF1FD890FF1FE090FF1FE090FF1FD8
:1054AC00E890FF1FE890FF1FF090FF1FF090FF1F88
:1054BC00F890FF1FF890FF1F0091FF1F0091FF1F36
:1054CC000891FF1F0891FF1F1091FF1F1091FF1FE4
:1054DC001891FF1F1891FF1F2091FF1F2091FF1F94
:1054EC002891FF1F2891FF1F3091FF1F3091FF1F44
:1054FC003891FF1F3891FF1F4091FF1F4091FF1FF4
:10550C004891FF1F4891FF1F5091FF1F5091FF1FA3
:10551C005891FF1F5891FF1F6091FF1F6091FF1F53
:10552C006891FF1F6891FF1F00000200FFFFFFFF43
:00000001FF
